:100000000C942A000C9447000C9447000C94470071
:100010000C9447000C9447000C9446030C94470042
:100020000C9447000C941D030C9447000C9447005B
:100030000C9447000C947C030C9447000C94A5038B
:100040000C9447000C9447000C9447000C94470014
:100050000C94470011241FBECFE5D8E0DEBFCDBF12
:1000600010E0A0E6B0E0E0EAF7E002C005900D92F3
:10007000A838B107D9F720E0A8E8B0E001C01D9288
:10008000AA39B207E1F70E9442010C94CE030C9406
:1000900000001F93CF93DF93EC01162F83EC99E0C0
:1000A0000197F1F700C000000E94E3020E94FA02EB
:1000B000883011F080E020C0CE0188279770880F2B
:1000C000892F881F990B9195806A0E94EC020E94EB
:1000D000FA02883179F78C2F0E94EC020E94FA0212
:1000E000883241F7812F0E94EC020E94FA02883286
:1000F00009F70E94E90281E0DF91CF911F910895F5
:10010000EF92FF920F931F93CF93DF938C017B01AC
:1001100083EC99E00197F1F700C000000E94E30230
:100120000E94FA02883011F080E030C0E801CC274C
:10013000D770CC0FCD2FCC1FDD0BD1958C2F806AC3
:100140000E94EC020E94FA02883171F7802F0E940F
:10015000EC020E94FA02883239F70E94E3020E9400
:10016000FA02803109F78C2F816A0E94EC020E940A
:10017000FA028034C9F60E94F302F70180830E94DC
:10018000FA02883589F60E94E90281E0DF91CF9179
:100190001F910F91FF90EF900895CF93DF938230DE
:1001A00080F4C82FD0E0CC0FDD1FCB59DF4F60E0CB
:1001B00088810E947D0161E08981DF91CF910C945B
:1001C0007D01DF91CF91089580918C009CB1E82F43
:1001D000F0E0E05AFF4F90838F5F80938C00853072
:1001E00039F480918B008F5F80938B0010928C008C
:1001F00008950F931F93CF93DF938C01C4E1D0E058
:10020000F80161918F01CE010E94490083EC99E0D1
:100210000197F1F700C000002196C931D10581F79F
:10022000DF91CF911F910F910895FB019C012B5FEE
:100230003F4FDC015D91CD014191541305C0A217E0
:10024000B307B9F781E0089580E00895CF93DF9375
:10025000C4E1D0E0BE016F577F4FCE010E94800005
:1002600083EC99E00197F1F700C000002196C931B5
:10027000D10581F765E970E080E690E0DF91CF91EC
:100280000C9415018AE280936400809399000E9487
:10029000FE010E946F0361E080E00E94FD020E9467
:1002A000DC0278940E94750384EE90E00E9477034C
:1002B000C0918B00C13051F480918A00811106C039
:1002C00080E690E00E94F900C0938A0080918B0044
:1002D000823041F480918900811104C00E9426017E
:1002E0008093880080918800813011F78093890085
:1002F000AF9A80E00E94CD00DBCF982F969596951F
:10030000969587706130C1F5913091F028F0923068
:10031000D9F0933029F108954BB321E030E0B901D1
:1003200002C0660F771F8A95E2F7CB01842B3AC093
:1003300048B321E030E0B90102C0660F771F8A950B
:10034000E2F7CB01842B3CC045B321E030E0B9019A
:1003500002C0660F771F8A95E2F7CB01842B3EC05F
:1003600042B321E030E0B90102C0660F771F8A95E1
:10037000E2F7CB01842B40C061113FC09130A1F066
:1003800028F09230F9F0933059F108954BB321E001
:1003900030E0B90102C0660F771F8A95E2F7CB0102
:1003A000809584238BBB089548B321E030E0B901E8
:1003B00002C0660F771F8A95E2F7CB0180958423F0
:1003C00088BB089545B321E030E0B90102C0660F53
:1003D000771F8A95E2F7CB018095842385BB08952A
:1003E00042B321E030E0B90102C0660F771F8A9561
:1003F000E2F7CB018095842382BB0895E7E6F0E025
:1004000040E081E090E05191342F36953695369555
:10041000242F2770513009F443C020F0523009F4E2
:1004200082C0C5C0323001F1333061F1313071F03A
:100430005AB3BC0102C0660F771F2A95E2F79B01F1
:10044000352F322B3ABB3BB320953DC057B3BC018F
:1004500002C0660F771F2A95E2F79B01352F322BDA
:1004600037BB38B320953EC054B3BC0102C0660F01
:10047000771F2A95E2F79B01352F322B34BB35B31A
:1004800020953FC051B3BC0102C0660F771F2A956B
:10049000E2F79B01352F322B31BB32B3209541C09F
:1004A000323011F1333081F1313079F05AB3BC017F
:1004B00002C0660F771F2A95E2F79B012095352F22
:1004C00032233ABB3BB3232342C057B3BC0102C023
:1004D000660F771F2A95E2F79B012095352F32236F
:1004E00037BB38B3232343C054B3BC0102C0660FEB
:1004F000771F2A95E2F79B012095352F322334BBD5
:1005000035B3232325BB53C051B3BC0102C0660FD2
:10051000771F2A95E2F79B012095352F322331BBB7
:1005200032B3232343C0323021F1333089F13130EB
:1005300081F05AB3BC0102C0660F771F2A95E2F71B
:100540009B01362F309535233ABB3BB3232B2BBB76
:100550002EC057B3BC0102C0660F771F2A95E2F781
:100560009B01362F3095352337BB38B3232B28BB5F
:100570001EC054B3BC0102C0660F771F2A95E2F774
:100580009B01362F3095352334BB35B3232BBACF9F
:1005900051B3BC0102C0660F771F2A95E2F79B0199
:1005A000362F3095352331BB32B3232B22BB4F5F1F
:1005B000403209F028CF089582E080B911B882B99D
:1005C00084E086BF089584EA86BF06B607FEFDCFA5
:1005D000089584E986BF089583B984E886BF06B686
:1005E00007FEFDCF089584E886BF06B607FEFDCF5F
:1005F00083B1089581B1887F0895813059F038F032
:10060000823071F0833091F483B780640BC083B77C
:100610008F7B02C083B7806483BF83B7877F05C0A9
:1006200083B78F7B83BF83B7886083BF83B7887F9F
:1006300083BF83B7682B63BF08951F920F920FB6D5
:100640000F9211242F933F934F935F936F937F9358
:100650008F939F93AF93BF93EF93FF93E0918F009E
:10066000F0919000309709F00995FF91EF91BF91BB
:10067000AF919F918F917F916F915F914F913F913A
:100680002F910F900FBE0F901F9018951F920F92F1
:100690000FB60F9211242F933F934F935F936F9355
:1006A0007F938F939F93AF93BF93EF93FF93E091CB
:1006B0008D00F0918E00309709F00995FF91EF9130
:1006C000BF91AF919F918F917F916F915F914F916A
:1006D0003F912F910F900FBE0F901F90189583E3BD
:1006E00089B95998539A549A0895579A08959093AE
:1006F00094008093930008951F920F920FB60F926B
:1007000011242F933F934F935F936F937F938F9316
:100710009F93AF93BF93EF93FF93E0919300F0917A
:100720009400309709F00995FF91EF91BF91AF9137
:100730009F918F917F916F915F914F913F912F91F9
:100740000F900FBE0F901F9018951F920F920FB62B
:100750000F9211242F933F934F935F936F937F9347
:100760008F939F93AF93BF93EF93FF93E09191008B
:10077000F0919200309709F00995FF91EF91BF91A8
:10078000AF919F918F917F916F915F914F913F9129
:100790002F910F900FBE0F901F901895F894FFCFD8
:1007A0000005060708151600000000000000000004
:1007B0000000000000000000000000000000000138
:0807C000000202020200000029
:00000001FF
