S0130000434F4E54524F4C5F4D43552E73726563AC
S11300000C942A000C9447000C9447000C9447006D
S11300100C9447000C9447000C9489030C944700FB
S11300200C9447000C9460030C9447000C94470014
S11300300C9447000C94C3030C9447000C94EC03F9
S11300400C9447000C9447000C9447000C94470010
S11300500C94470011241FBECFE5D8E0DEBFCDBF0E
S113006010E0A0E6B0E0EEE2F8E002C005900D92E8
S1130070A238B107D9F720E0A2E8B0E001C01D9290
S1130080AD39B207E1F70E9464010C9415040C9495
S113009000001F93CF93DF93EC01162F83EC99E0BC
S11300A00197F1F700C000000E9446030E945D031F
S11300B0883011F080E020C0CE0188279770880F27
S11300C0892F881F990B9195806A0E944F030E9483
S11300D05D03883179F78C2F0E944F030E945D03E2
S11300E0883241F7812F0E944F030E945D038832BA
S11300F009F70E944C0381E0DF91CF911F9108958D
S1130100EF92FF920F931F93CF93DF938C017B01A8
S113011083EC99E00197F1F700C000000E944603C8
S11301200E945D03883011F080E030C0E801CC27E4
S1130130D770CC0FCD2FCC1FDD0BD1958C2F806ABF
S11301400E944F030E945D03883171F7802F0E9443
S11301504F030E945D03883239F70E9446030E94D0
S11301605D03803109F78C2F816A0E944F030E943E
S11301705D038034C9F60E945603F70180830E9410
S11301805D03883589F60E944C0381E0DF91CF91AD
S11301901F910F91FF90EF900895CF93DF938230DA
S11301A080F4C82FD0E0CC0FDD1FC05ADF4F60E0D1
S11301B088810E94E00161E08981DF91CF910C94F4
S11301C0E001DF91CF910895CF93DF93823080F4E3
S11301D0C82FD0E0CC0FDD1FC05ADF4F61E088810B
S11301E00E94E00160E08981DF91CF910C94E001ED
S11301F0DF91CF9108958CB1809395008B3211F0EB
S11302008D3219F4809383000AC0E091870091E055
S11302109E0F90938700F0E0E057FF4F808380911A
S11302208700853039F410928700809185008F5FB4
S11302308093850008950F931F93CF93DF938C01D0
S1130240CCE3D0E0F80161918F01CE010E94490016
S113025083EC99E00197F1F700C000002196C134C6
S1130260D10581F7DF91CF911F910F910895FB0183
S11302709C012B5F3F4FDC015D91CD0141915413F3
S113028005C0A217B307B9F781E0089580E0089587
S1130290CF93DF93CCE3D0E0BE01665A7F4FCE010B
S11302A00E94800083EC99E00197F1F700C0000000
S11302B02196C134D10581F766E970E080E990E0C8
S11302C0DF91CF910C9437010E9461020E94B20326
S11302D00E943F0378940E94BC038BEF90E00E943D
S11302E0BE03D1E0C0918500C13051F480918400F7
S11302F0811106C080E990E00E941B01C093840034
S1130300809183008B3219F08D32D9F146C00E945E
S11303104801C82F80938200813039F5809185008F
S11303208230D9F58FE60E94B803AF9A80E00E942C
S1130330CD002FE784E89EE1215080409040E1F712
S113034000C0000083E60E94B80380E00E94E4003D
S11303502FE382E49FE0215080409040E1F700C009
S11303600000AF98C093850016C0811116C080911B
S11303708500823091F4809186008F5F809386009F
S113038008C080918500823041F480E990E00E94A9
S11303901B01D093850010928300809186008330E6
S11303A009F0A0CF979A2FEF89E698E12150804079
S11303B09040E1F700C0000097981092860092CF19
S11303C0982F96959695969587706130C1F59130E2
S11303D091F028F09230D9F0933029F108954BB37D
S11303E021E030E0B90102C0660F771F8A95E2F779
S11303F0CB01842B3AC048B321E030E0B90102C0FC
S1130400660F771F8A95E2F7CB01842B3CC045B376
S113041021E030E0B90102C0660F771F8A95E2F748
S1130420CB01842B3EC042B321E030E0B90102C0CD
S1130430660F771F8A95E2F7CB01842B40C06111C8
S11304403FC09130A1F028F09230F9F0933059F187
S113045008954BB321E030E0B90102C0660F771F65
S11304608A95E2F7CB01809584238BBB089548B32A
S113047021E030E0B90102C0660F771F8A95E2F7E8
S1130480CB018095842388BB089545B321E030E0F7
S1130490B90102C0660F771F8A95E2F7CB018095F8
S11304A0842385BB089542B321E030E0B90102C042
S11304B0660F771F8A95E2F7CB018095842382BB70
S11304C00895E2E6F0E040E081E090E05191342FBD
S11304D0369536953695242F2770513009F443C04C
S11304E020F0523009F482C0C5C0323001F13330FB
S11304F061F1313071F05AB3BC0102C0660F771F4D
S11305002A95E2F79B01352F322B3ABB3BB320955A
S11305103DC057B3BC0102C0660F771F2A95E2F7AE
S11305209B01352F322B37BB38B320953EC054B3D3
S1130530BC0102C0660F771F2A95E2F79B01352F95
S1130540322B34BB35B320953FC051B3BC0102C03C
S1130550660F771F2A95E2F79B01352F322B31BBAB
S113056032B3209541C0323011F1333081F1313052
S113057079F05AB3BC0102C0660F771F2A95E2F7DF
S11305809B012095352F32233ABB3BB3232342C032
S113059057B3BC0102C0660F771F2A95E2F79B018F
S11305A02095352F322337BB38B3232343C054B3AC
S11305B0BC0102C0660F771F2A95E2F79B012095C4
S11305C0352F322334BB35B3232325BB53C051B35A
S11305D0BC0102C0660F771F2A95E2F79B012095A4
S11305E0352F322331BB32B3232343C0323021F1C0
S11305F0333089F1313081F05AB3BC0102C0660F47
S1130600771F2A95E2F79B01362F309535233ABBA5
S11306103BB3232B2BBB2EC057B3BC0102C0660FC8
S1130620771F2A95E2F79B01362F3095352337BB88
S113063038B3232B28BB1EC054B3BC0102C0660FC1
S1130640771F2A95E2F79B01362F3095352334BB6B
S113065035B3232BBACF51B3BC0102C0660F771F49
S11306602A95E2F79B01362F3095352331BB32B3FF
S1130670232B22BB4F5F403209F028CF089582E03C
S113068080B911B882B984E086BF089584EA86BF30
S113069006B607FEFDCF089584E986BF089583B9A1
S11306A084E886BF06B607FEFDCF089584E886BFBA
S11306B006B607FEFDCF83B1089581B1887F089502
S11306C01F920F920FB60F9211242F933F934F93C3
S11306D05F936F937F938F939F93AF93BF93EF93A6
S11306E0FF93E0918A00F0918B00309709F009950F
S11306F0FF91EF91BF91AF919F918F917F916F91F6
S11307005F914F913F912F910F900FBE0F901F90CB
S113071018951F920F920FB60F9211242F933F93A7
S11307204F935F936F937F938F939F93AF93BF93F5
S1130730EF93FF93E0918800F0918900309709F0DE
S11307400995FF91EF91BF91AF919F918F917F9107
S11307506F915F914F913F912F910F900FBE0F902A
S11307601F90189583E389B95998539A549A089518
S11307705D9BFECF8CB90895579A089590938F008E
S113078080938E0008951F920F920FB60F9211243A
S11307902F933F934F935F936F937F938F939F9385
S11307A0AF93BF93EF93FF93E0918E00F0918F008E
S11307B0309709F00995FF91EF91BF91AF919F9107
S11307C08F917F916F915F914F913F912F910F90F6
S11307D00FBE0F901F9018951F920F920FB60F9295
S11307E011242F933F934F935F936F937F938F9332
S11307F09F93AF93BF93EF93FF93E0918C00F0919D
S11308008D00309709F00995FF91EF91BF91AF9159
S11308109F918F917F916F915F914F913F912F9114
S11108200F900FBE0F901F901895F894FFCF05
S113082E151600000000000000000000000000008B
S113083E000000000000000000000100020202029D
S105084E0000A4
S9030000FC
