:100000000C942A000C9447000C9447000C94470071
:100010000C9447000C9447000C9446030C94470042
:100020000C9447000C941D030C9447000C9447005B
:100030000C9447000C947C030C9447000C94A5038B
:100040000C9447000C9447000C9447000C94470014
:100050000C94470011241FBECFE5D8E0DEBFCDBF12
:1000600010E0A0E6B0E0E0EAF7E002C005900D92F3
:10007000A238B107D9F720E0A2E8B0E001C01D9294
:10008000AD39B207E1F70E944D010C94CE030C94F8
:1000900000001F93CF93DF93EC01162F83EC99E0C0
:1000A0000197F1F700C000000E9403030E941A03A9
:1000B000883011F080E020C0CE0188279770880F2B
:1000C000892F881F990B9195806A0E940C030E94CA
:1000D0001A03883179F78C2F0E940C030E941A03AF
:1000E000883241F7812F0E940C030E941A03883244
:1000F00009F70E94090381E0DF91CF911F910895D4
:10010000EF92FF920F931F93CF93DF938C017B01AC
:1001100083EC99E00197F1F700C000000E9403030F
:100120000E941A03883011F080E030C0E801CC272B
:10013000D770CC0FCD2FCC1FDD0BD1958C2F806AC3
:100140000E940C030E941A03883171F7802F0E94CD
:100150000C030E941A03883239F70E9403030E949D
:100160001A03803109F78C2F816A0E940C030E94C8
:100170001A038034C9F60E941303F70180830E949A
:100180001A03883589F60E94090381E0DF91CF9137
:100190001F910F91FF90EF900895CF93DF938230DE
:1001A00080F4C82FD0E0CC0FDD1FC05ADF4F60E0D5
:1001B00088810E949D0161E08981DF91CF910C943B
:1001C0009D01DF91CF9108958CB1809395008B3282
:1001D00011F08D3219F4809383000AC0E0918700FA
:1001E00091E09E0F90938700F0E0E057FF4F8083EF
:1001F00080918700853039F41092870080918500C6
:100200008F5F8093850008950F931F93CF93DF93A3
:100210008C01CCE3D0E0F80161918F01CE010E9406
:10022000490083EC99E00197F1F700C000002196A6
:10023000C134D10581F7DF91CF911F910F910895BE
:10024000FB019C012B5F3F4FDC015D91CD01419192
:10025000541305C0A217B307B9F781E0089580E0F1
:100260000895CF93DF93CCE3D0E0BE01665A7F4F71
:10027000CE010E94800083EC99E00197F1F700C065
:1002800000002196C134D10581F766E970E080E96C
:1002900090E0DF91CF910C9420010E941E020E94F9
:1002A0006F030E94FC0278940E94750384EE90E034
:1002B0000E947703D1E0C0918500C13051F4809154
:1002C0008400811106C080E990E00E940401C0937F
:1002D0008400809183008B3219F08D3219F1EBCFBD
:1002E0000E943101C82F809382008130A9F480914F
:1002F0008500823089F4AF9A80E00E94CD002FE320
:1003000082E49FE0215080409040E1F700C000006F
:10031000AF98C0938500CFCF809186008F5F809388
:100320008600C9CF80918500823029F680E990E06F
:100330000E940401D0938500BECF982F9695969584
:10034000969587706130C1F5913091F028F0923028
:10035000D9F0933029F108954BB321E030E0B90191
:1003600002C0660F771F8A95E2F7CB01842B3AC053
:1003700048B321E030E0B90102C0660F771F8A95CB
:10038000E2F7CB01842B3CC045B321E030E0B9015A
:1003900002C0660F771F8A95E2F7CB01842B3EC01F
:1003A00042B321E030E0B90102C0660F771F8A95A1
:1003B000E2F7CB01842B40C061113FC09130A1F026
:1003C00028F09230F9F0933059F108954BB321E0C1
:1003D00030E0B90102C0660F771F8A95E2F7CB01C2
:1003E000809584238BBB089548B321E030E0B901A8
:1003F00002C0660F771F8A95E2F7CB0180958423B0
:1004000088BB089545B321E030E0B90102C0660F12
:10041000771F8A95E2F7CB018095842385BB0895E9
:1004200042B321E030E0B90102C0660F771F8A9520
:10043000E2F7CB018095842382BB0895E2E6F0E0E9
:1004400040E081E090E05191342F36953695369515
:10045000242F2770513009F443C020F0523009F4A2
:1004600082C0C5C0323001F1333061F1313071F0FA
:100470005AB3BC0102C0660F771F2A95E2F79B01B1
:10048000352F322B3ABB3BB320953DC057B3BC014F
:1004900002C0660F771F2A95E2F79B01352F322B9A
:1004A00037BB38B320953EC054B3BC0102C0660FC1
:1004B000771F2A95E2F79B01352F322B34BB35B3DA
:1004C00020953FC051B3BC0102C0660F771F2A952B
:1004D000E2F79B01352F322B31BB32B3209541C05F
:1004E000323011F1333081F1313079F05AB3BC013F
:1004F00002C0660F771F2A95E2F79B012095352FE2
:1005000032233ABB3BB3232342C057B3BC0102C0E2
:10051000660F771F2A95E2F79B012095352F32232E
:1005200037BB38B3232343C054B3BC0102C0660FAA
:10053000771F2A95E2F79B012095352F322334BB94
:1005400035B3232325BB53C051B3BC0102C0660F92
:10055000771F2A95E2F79B012095352F322331BB77
:1005600032B3232343C0323021F1333089F13130AB
:1005700081F05AB3BC0102C0660F771F2A95E2F7DB
:100580009B01362F309535233ABB3BB3232B2BBB36
:100590002EC057B3BC0102C0660F771F2A95E2F741
:1005A0009B01362F3095352337BB38B3232B28BB1F
:1005B0001EC054B3BC0102C0660F771F2A95E2F734
:1005C0009B01362F3095352334BB35B3232BBACF5F
:1005D00051B3BC0102C0660F771F2A95E2F79B0159
:1005E000362F3095352331BB32B3232B22BB4F5FDF
:1005F000403209F028CF089582E080B911B882B95D
:1006000084E086BF089584EA86BF06B607FEFDCF64
:10061000089584E986BF089583B984E886BF06B645
:1006200007FEFDCF089584E886BF06B607FEFDCF1E
:1006300083B1089581B1887F08951F920F920FB6FC
:100640000F9211242F933F934F935F936F937F9358
:100650008F939F93AF93BF93EF93FF93E0918A00A3
:10066000F0918B00309709F00995FF91EF91BF91C0
:10067000AF919F918F917F916F915F914F913F913A
:100680002F910F900FBE0F901F9018951F920F92F1
:100690000FB60F9211242F933F934F935F936F9355
:1006A0007F938F939F93AF93BF93EF93FF93E091CB
:1006B0008800F0918900309709F00995FF91EF913A
:1006C000BF91AF919F918F917F916F915F914F916A
:1006D0003F912F910F900FBE0F901F90189583E3BD
:1006E00089B95998539A549A0895579A08959093AE
:1006F0008F0080938E0008951F920F920FB60F9275
:1007000011242F933F934F935F936F937F938F9316
:100710009F93AF93BF93EF93FF93E0918E00F0917F
:100720008F00309709F00995FF91EF91BF91AF913C
:100730009F918F917F916F915F914F913F912F91F9
:100740000F900FBE0F901F9018951F920F920FB62B
:100750000F9211242F933F934F935F936F937F9347
:100760008F939F93AF93BF93EF93FF93E0918C0090
:10077000F0918D00309709F00995FF91EF91BF91AD
:10078000AF919F918F917F916F915F914F913F9129
:100790002F910F900FBE0F901F901895F894FFCFD8
:1007A000151600000000000000000000000000001E
:1007B0000000000000000000000001000202020230
:0207C000000037
:00000001FF
