S00F0000484D495F4D43552E73726563F3
S11300000C942A000C9447000C9447000C9447006D
S11300100C9447000C9447000C94FE030C94470086
S11300200C9447000C94D5030C9447000C9447009F
S11300300C9447000C9438040C9447000C9461040D
S11300400C9447000C9447000C9447000C94470010
S11300500C94470011241FBECFE5D8E0DEBFCDBF0E
S113006010E0A0E6B0E0E8E1F9E002C005900D92EE
S1130070A03FB107D9F721E0A0EFB0E001C01D9285
S1130080A630B207E1F70E94AB010C948A040C94E9
S1130090000061E080E00E94490261E081E00E948A
S11300A0490261E082E00E94490261E083E00C942D
S11300B04902DF92EF92FF920F931F93CF93DF9346
S11300C090E6E92E90E0F92ED4E5C0E060E08C2FB4
S11300D00E94490200E010E084E0D82ED00E8D2D5D
S11300E00E94CA02811109C0F701E00FF11FD081FB
S11300F08D2D0E94CA028823D9F30F5F1F4F04304D
S1130100110551F761E08C2F0E944902CF5F84E012
S1130110E80EF11CC430D1F68D2FDF91CF911F91E1
S11301200F91FF90EF90DF900895CF93C82F60E078
S11301308EE10E9449026C2F82E00E94E70261E096
S11301408DE10E9449028FEC97E00197F1F700C01E
S1130150000060E08DE10E9449028FEC97E0019776
S1130160F1F700C00000CF910895CF93C82F61E04C
S11301708EE10E9449026C2F82E00E94E70261E056
S11301808DE10E9449028FEC97E00197F1F700C0DE
S1130190000060E08DE10E9449028FEC97E0019736
S11301A0F1F700C00000CF9108952FE788E391E0B4
S11301B0215080409040E1F700C0000088E30E9495
S11301C095008FEC97E00197F1F700C000008CE0F8
S11301D00E9495008FEC97E00197F1F700C00000B2
S11301E081E00E9495008FEC97E00197F1F700C041
S11301F0000086E00C9495000F931F93CF938C011D
S1130200C0E0F801EC0FF11D8081882321F00E94E9
S1130210B500CF5FF6CFCF911F910F91089581E084
S11302200E9495008FEC97E00197F1F700C0000061
S11302300895811103C0862F806804C0813021F4A1
S1130240862F806C0C94950008958CB180930501E1
S11302508F3671F40E940F0180E790E00E94FC0049
S11302602FEF8FE493EC215080409040E1F70DC0D4
S1130270833679F48EE790E00E94FC002FEF81E151
S11302809AE7215080409040E1F700C000000C94B0
S11302900F010895CF930E940F0186E890E00E9419
S11302A0FC0060E081E00E9419018AE2809304016D
S11302B0C0E084E5909104019A3299F4843519F4EC
S11302C00E945900FBCF8D33A9F3EC2FF0E0E050EE
S11302D0FF4F8053808385E990E00E94FC00CF5F4C
S11302E0E8CFCF910895CF930E940F0187E990E062
S11302F00E94FC0060E081E00E9419018AE2809380
S1130300FF00C0E084E59091FF009A3299F48435AF
S113031019F40E945900FBCF8D33A9F3EC2FF0E0C0
S1130320E550FF4F8053808385E990E00E94FC00F4
S1130330CF5FE8CFE0E0F1E0ABEFB0E091918D91D9
S1130340981306C081E0E530F807C1F781E001C0E9
S113035080E0CF9108950E94F7020E94D5000E9488
S113036049000E94270478940E94310485E291E0B8
S11303700E94330484E5F82E05E011E08091F10039
S1130380811151C00E944A010E9473018093F200BE
S1130390882309F10E940F0187EA90E00E94FC0083
S11303A0C0E0D1E08991805D0E942D048FE19EE43C
S11303B00197F1F700C000000C171D0799F781E0C1
S11303C08093F1008FE19EE40197F1F700C00000F3
S11303D00E940F01D3CF0E940F0184EA90E00E9493
S11303E0FC009FEF29E688E1915020408040E1F72E
S11303F000C00000C3CF8D3299F50E942D040E94E5
S11304004A01C0E0D1E08991805D0E942D048FE112
S11304109EE40197F1F700C0000091E0C530D907D0
S113042091F71092F0008091F0008111A7CF0E9403
S11304300F018FEA90E00E94FC0060E081E00E94DE
S113044019018EEB90E00E94FC00F092F000809184
S1130450F000843581F60E9459008093F000F7CFB4
S11304608B3209F70E942D040E940F010E944A0159
S1130470C0E0D1E08991805D0E942D048FE19EE46B
S11304800197F1F700C0000091E0C530D90791F75A
S1130490C8CF982F96959695969587706130C1F53B
S11304A0913091F028F09230D9F0933029F10895E9
S11304B04BB321E030E0B90102C0660F771F8A9583
S11304C0E2F7CB01842B3AC048B321E030E0B90114
S11304D002C0660F771F8A95E2F7CB01842B3CC0DC
S11304E045B321E030E0B90102C0660F771F8A9559
S11304F0E2F7CB01842B3EC042B321E030E0B901E6
S113050002C0660F771F8A95E2F7CB01842B40C0A7
S113051061113FC09130A1F028F09230F9F093308E
S113052059F108954BB321E030E0B90102C0660FE0
S1130530771F8A95E2F7CB01809584238BBB0895BE
S113054048B321E030E0B90102C0660F771F8A95F5
S1130550E2F7CB018095842388BB089545B321E05D
S113056030E0B90102C0660F771F8A95E2F7CB012C
S11305708095842385BB089542B321E030E0B9011E
S113058002C0660F771F8A95E2F7CB01809584231A
S113059082BB0895282F277086958695869581308D
S11305A049F030F0823041F0833079F480B305C0F3
S11305B089B303C086B301C083B390E002C09595AC
S11305C087952A95E2F78170089580E00895813037
S11305D041F028F0823039F0833039F008956BBB54
S11305E0089568BB089565BB089562BB0895EFEC58
S11305F0F0E040E081E090E05191342F369536955B
S11306003695242F2770513009F443C020F052301E
S113061009F482C0C5C0323001F1333061F13130A8
S113062071F05AB3BC0102C0660F771F2A95E2F736
S11306309B01352F322B3ABB3BB320953DC057B3BA
S1130640BC0102C0660F771F2A95E2F79B01352F84
S1130650322B37BB38B320953EC054B3BC0102C023
S1130660660F771F2A95E2F79B01352F322B34BB97
S113067035B320953FC051B3BC0102C0660F771F4C
S11306802A95E2F79B01352F322B31BB32B32095EB
S113069041C0323011F1333081F1313079F05AB345
S11306A0BC0102C0660F771F2A95E2F79B012095D3
S11306B0352F32233ABB3BB3232342C057B3BC018B
S11306C002C0660F771F2A95E2F79B012095352F0C
S11306D0322337BB38B3232343C054B3BC0102C015
S11306E0660F771F2A95E2F79B012095352F322359
S11306F034BB35B3232325BB53C051B3BC0102C063
S1130700660F771F2A95E2F79B012095352F322338
S113071031BB32B3232343C0323021F1333089F16A
S1130720313081F05AB3BC0102C0660F771F2A959D
S1130730E2F79B01362F309535233ABB3BB3232B8D
S11307402BBB2EC057B3BC0102C0660F771F2A957E
S1130750E2F79B01362F3095352337BB38B3232B73
S113076028BB1EC054B3BC0102C0660F771F2A9574
S1130770E2F79B01362F3095352334BB35B3232B59
S1130780BACF51B3BC0102C0660F771F2A95E2F7B6
S11307909B01362F3095352331BB32B3232B22BB3B
S11307A04F5F403209F028CF08951F920F920FB681
S11307B00F9211242F933F934F935F936F937F93E3
S11307C08F939F93AF93BF93EF93FF93E091F500C3
S11307D0F091F600309709F00995FF91EF91BF91E0
S11307E0AF919F918F917F916F915F914F913F91C5
S11307F02F910F900FBE0F901F9018951F920F927C
S11308000FB60F9211242F933F934F935F936F93DF
S11308107F938F939F93AF93BF93EF93FF93E09155
S1130820F300F091F400309709F00995FF91EF91EE
S1130830BF91AF919F918F917F916F915F914F91F4
S11308403F912F910F900FBE0F901F90189583E347
S113085089B95998539A549A08955D9BFECF8CB9DF
S11308600895579A08959093FA008093F900089593
S11308701F920F920FB60F9211242F933F934F9311
S11308805F936F937F938F939F93AF93BF93EF93F4
S1130890FF93E091F900F091FA00309709F009957F
S11308A0FF91EF91BF91AF919F918F917F916F9144
S11308B05F914F913F912F910F900FBE0F901F901A
S11308C018951F920F920FB60F9211242F933F93F6
S11308D04F935F936F937F938F939F93AF93BF9344
S11308E0EF93FF93E091F700F091F800309709F04F
S11308F00995FF91EF91BF91AF919F918F917F9156
S11309006F915F914F913F912F910F900FBE0F9078
S10B09101F901895F894FFCF25
S11309183738392F3435362A3132332D63303D2B6D
S1130928446F6F72206F70656E696E672000436C48
S11309386F73696E6700706C7A20656E74657220D7
S113094870617373002A00706C7A2072652D656E6D
S113095874657200756E206D617463686564002B3C
S1130968203A206F70656E20646F6F7220002D200E
S11309783A206368616E67652070617373200000B4
S1130988000000020202020000000002020202004B
S11309980000000000000001000000020000000048
S9030000FC
