S00F0000484D495F4D43552E73726563F3
S11300000C942A000C9447000C9447000C9447006D
S11300100C9447000C9447000C94CE030C944700B6
S11300200C9447000C94A5030C9447000C944700CF
S11300300C9447000C9401040C9447000C942A047B
S11300400C9447000C9447000C9447000C94470010
S11300500C94470011241FBECFE5D8E0DEBFCDBF0E
S113006010E0A0E6B0E0EAEAF8E002C005900D92E4
S1130070AA3DB107D9F720E0AAEDB0E001C01D9276
S1130080AF3EB207E1F70E9486010C9453040C942E
S1130090000061E080E00E94190261E081E00E94BA
S11300A0190261E082E00E94190261E083E00C948D
S11300B01902DF92EF92FF920F931F93CF93DF9376
S11300C090E6E92E90E0F92ED4E5C0E060E08C2FB4
S11300D00E94190200E010E084E0D82ED00E8D2D8D
S11300E00E949A02811109C0F701E00FF11FD0812B
S11300F08D2D0E949A028823D9F30F5F1F4F04307D
S1130100110551F761E08C2F0E941902CF5F84E042
S1130110E80EF11CC430D1F68D2FDF91CF911F91E1
S11301200F91FF90EF90DF900895CF93C82F60E078
S11301308EE10E9419026C2F82E00E94B70261E0F6
S11301408DE10E9419028FEC97E00197F1F700C04E
S1130150000060E08DE10E9419028FEC97E00197A6
S1130160F1F700C00000CF910895CF93C82F61E04C
S11301708EE10E9419026C2F82E00E94B70261E0B6
S11301808DE10E9419028FEC97E00197F1F700C00E
S1130190000060E08DE10E9419028FEC97E0019766
S11301A0F1F700C00000CF9108952FE788E391E0B4
S11301B0215080409040E1F700C0000088E30E9495
S11301C095008FEC97E00197F1F700C000008CE0F8
S11301D00E9495008FEC97E00197F1F700C00000B2
S11301E081E00E9495008FEC97E00197F1F700C041
S11301F0000086E00C9495000F931F93CF938C011D
S1130200C0E0F801EC0FF11D8081882321F00E94E9
S1130210B500CF5FF6CFCF911F910F91089581E084
S11302200E9495008FEC97E00197F1F700C0000061
S11302300895811103C0862F806804C0813021F4A1
S1130240862F806C0C9495000895CF930E940F0123
S113025080E790E00E94FC0060E081E00E941901C8
S11302608AE28093EE00C0E084E59091EE009A3239
S113027099F4843519F40E945900FBCF8D33A9F306
S1130280EC2FF0E0E651FF4F805380838FE790E03E
S11302900E94FC00CF5FE8CFCF910895CF930E94D6
S11302A00F0181E890E00E94FC0060E081E00E9480
S11302B019018AE28093E900C0E084E59091E900A5
S11302C09A3299F4843519F40E945900FBCF8D3386
S11302D0A9F3EC2FF0E0EB51FF4F805380838FE7BD
S11302E090E00E94FC00CF5FE8CFEAEEF0E0A5EEDC
S11302F0B0E091918D91981306C080E0EF3EF8072D
S1130300C1F781E001C080E0CF9108950E94C70247
S11303100E94D5000E9449000E94F70384E5F82E4C
S11303200FEE10E08091DB0081114FC00E94250187
S11303300E944E018093DC00882309F10E940F0182
S113034081E990E00E94FC00CAEED0E08991805DD2
S11303500E94FD038FE19EE40197F1F700C00000C5
S11303600C171D0799F781E08093DB008FE19EE471
S11303700197F1F700C000000E940F01D3CF0E9443
S11303800F018EE890E00E94FC009FEF29E688E1CF
S1130390915020408040E1F700C00000C3CF8D326F
S11303A089F50E942501CAEED0E08991805D0E9402
S11303B0FD038FE19EE40197F1F700C0000090E097
S11303C0CF3ED90791F71092DA008091DA008111BB
S11303D0A9CF0E940F0189E990E00E94FC0060E02F
S11303E081E00E94190188EA90E00E94FC00F092EA
S11303F0DA008091DA00843591F60E9459008093E6
S1130400DA00F7CF8B3209F70E940F010E94250111
S1130410CAEED0E08991805D0E94FD038FE19EE4E5
S11304200197F1F700C0000090E0CF3ED90791F7A3
S1130430CACF982F96959695969587706130C1F599
S1130440913091F028F09230D9F0933029F1089549
S11304504BB321E030E0B90102C0660F771F8A95E3
S1130460E2F7CB01842B3AC048B321E030E0B90174
S113047002C0660F771F8A95E2F7CB01842B3CC03C
S113048045B321E030E0B90102C0660F771F8A95B9
S1130490E2F7CB01842B3EC042B321E030E0B90146
S11304A002C0660F771F8A95E2F7CB01842B40C008
S11304B061113FC09130A1F028F09230F9F09330EF
S11304C059F108954BB321E030E0B90102C0660F41
S11304D0771F8A95E2F7CB01809584238BBB08951F
S11304E048B321E030E0B90102C0660F771F8A9556
S11304F0E2F7CB018095842388BB089545B321E0BE
S113050030E0B90102C0660F771F8A95E2F7CB018C
S11305108095842385BB089542B321E030E0B9017E
S113052002C0660F771F8A95E2F7CB01809584237A
S113053082BB0895282F27708695869586958130ED
S113054049F030F0823041F0833079F480B305C053
S113055089B303C086B301C083B390E002C095950C
S113056087952A95E2F78170089580E00895813097
S113057041F028F0823039F0833039F008956BBBB4
S1130580089568BB089565BB089562BB0895E9EBBF
S1130590F0E040E081E090E05191342F36953695BB
S11305A03695242F2770513009F443C020F052307F
S11305B009F482C0C5C0323001F1333061F1313009
S11305C071F05AB3BC0102C0660F771F2A95E2F797
S11305D09B01352F322B3ABB3BB320953DC057B31B
S11305E0BC0102C0660F771F2A95E2F79B01352FE5
S11305F0322B37BB38B320953EC054B3BC0102C084
S1130600660F771F2A95E2F79B01352F322B34BBF7
S113061035B320953FC051B3BC0102C0660F771FAC
S11306202A95E2F79B01352F322B31BB32B320954B
S113063041C0323011F1333081F1313079F05AB3A5
S1130640BC0102C0660F771F2A95E2F79B01209533
S1130650352F32233ABB3BB3232342C057B3BC01EB
S113066002C0660F771F2A95E2F79B012095352F6C
S1130670322337BB38B3232343C054B3BC0102C075
S1130680660F771F2A95E2F79B012095352F3223B9
S113069034BB35B3232325BB53C051B3BC0102C0C3
S11306A0660F771F2A95E2F79B012095352F322399
S11306B031BB32B3232343C0323021F1333089F1CB
S11306C0313081F05AB3BC0102C0660F771F2A95FE
S11306D0E2F79B01362F309535233ABB3BB3232BEE
S11306E02BBB2EC057B3BC0102C0660F771F2A95DF
S11306F0E2F79B01362F3095352337BB38B3232BD4
S113070028BB1EC054B3BC0102C0660F771F2A95D4
S1130710E2F79B01362F3095352334BB35B3232BB9
S1130720BACF51B3BC0102C0660F771F2A95E2F716
S11307309B01362F3095352331BB32B3232B22BB9B
S11307404F5F403209F028CF08951F920F920FB6E1
S11307500F9211242F933F934F935F936F937F9343
S11307608F939F93AF93BF93EF93FF93E091DF0039
S1130770F091E000309709F00995FF91EF91BF9156
S1130780AF919F918F917F916F915F914F913F9125
S11307902F910F900FBE0F901F9018951F920F92DC
S11307A00FB60F9211242F933F934F935F936F9340
S11307B07F938F939F93AF93BF93EF93FF93E091B6
S11307C0DD00F091DE00309709F00995FF91EF917B
S11307D0BF91AF919F918F917F916F915F914F9155
S11307E03F912F910F900FBE0F901F90189583E3A8
S11307F089B95998539A549A08955D9BFECF8CB940
S113080008951F920F920FB60F9211242F933F93C6
S11308104F935F936F937F938F939F93AF93BF9304
S1130820EF93FF93E091E300F091E400309709F037
S11308300995FF91EF91BF91AF919F918F917F9116
S11308406F915F914F913F912F910F900FBE0F9039
S11308501F9018951F920F920FB60F9211242F9389
S11308603F934F935F936F937F938F939F93AF9334
S1130870BF93EF93FF93E091E100F091E200309792
S113088009F00995FF91EF91BF91AF919F918F91DD
S11308907F916F915F914F913F912F910F900FBE78
S10D08A00F901F901895F894FFCFF5
S11308AA3738392F3435362A3132332D63303D2BDC
S11308BA706C7A20656E7465722070617373002A95
S11308CA00706C7A2072652D656E74657200756E9F
S11308DA206D617463686564002B203A206F70652B
S11308EA6E20646F6F7220002D203A206368616E57
S11308FA6765207061737320000000000002020221
S113090A02000000000202020200000000000000CF
S10D091A00010000000200000000CC
S9030000FC
